{
  "_format": "hh-sol-artifact-1",
  "contractName": "WavePortal",
  "sourceName": "contracts/WavePortal.sol",
  "abi": [
    {
      "inputs": [],
      "stateMutability": "payable",
      "type": "constructor"
    },
    {
      "anonymous": false,
      "inputs": [
        {
          "indexed": true,
          "internalType": "address",
          "name": "from",
          "type": "address"
        },
        {
          "indexed": false,
          "internalType": "uint256",
          "name": "timesstamp",
          "type": "uint256"
        },
        {
          "indexed": false,
          "internalType": "string",
          "name": "message",
          "type": "string"
        }
      ],
      "name": "NewWave",
      "type": "event"
    },
    {
      "inputs": [],
      "name": "getAllWaves",
      "outputs": [
        {
          "components": [
            {
              "internalType": "address",
              "name": "waver",
              "type": "address"
            },
            {
              "internalType": "string",
              "name": "message",
              "type": "string"
            },
            {
              "internalType": "uint256",
              "name": "timestamp",
              "type": "uint256"
            },
            {
              "internalType": "uint256",
              "name": "totalWaveCount",
              "type": "uint256"
            }
          ],
          "internalType": "struct WavePortal.Wave[]",
          "name": "",
          "type": "tuple[]"
        }
      ],
      "stateMutability": "view",
      "type": "function"
    },
    {
      "inputs": [],
      "name": "getTotalWaves",
      "outputs": [
        {
          "internalType": "uint256",
          "name": "",
          "type": "uint256"
        }
      ],
      "stateMutability": "view",
      "type": "function"
    },
    {
      "inputs": [],
      "name": "getUserWaveCount",
      "outputs": [
        {
          "internalType": "uint256",
          "name": "",
          "type": "uint256"
        }
      ],
      "stateMutability": "view",
      "type": "function"
    },
    {
      "inputs": [
        {
          "internalType": "address",
          "name": "",
          "type": "address"
        }
      ],
      "name": "lastWavedAt",
      "outputs": [
        {
          "internalType": "uint256",
          "name": "",
          "type": "uint256"
        }
      ],
      "stateMutability": "view",
      "type": "function"
    },
    {
      "inputs": [
        {
          "internalType": "string",
          "name": "_message",
          "type": "string"
        }
      ],
      "name": "wave",
      "outputs": [],
      "stateMutability": "nonpayable",
      "type": "function"
    }
  ],
  "bytecode": "0x60806040526200004f6040518060400160405280601481526020017f4d6520636f6e7472616374206d6520736d6172740000000000000000000000008152506200007760201b620007a71760201c565b606444426200005f9190620001c4565b6200006b919062000261565b60038190555062000308565b62000117816040516024016200008e919062000184565b6040516020818303038152906040527f41304fac000000000000000000000000000000000000000000000000000000007bffffffffffffffffffffffffffffffffffffffffffffffffffffffff19166020820180517bffffffffffffffffffffffffffffffffffffffffffffffffffffffff83818316178352505050506200011a60201b60201c565b50565b60008151905060006a636f6e736f6c652e6c6f679050602083016000808483855afa5050505050565b60006200015082620001a8565b6200015c8185620001b3565b93506200016e8185602086016200022b565b6200017981620002f7565b840191505092915050565b60006020820190508181036000830152620001a0818462000143565b905092915050565b600081519050919050565b600082825260208201905092915050565b6000620001d18262000221565b9150620001de8362000221565b9250827fffffffffffffffffffffffffffffffffffffffffffffffffffffffffffffffff0382111562000216576200021562000299565b5b828201905092915050565b6000819050919050565b60005b838110156200024b5780820151818401526020810190506200022e565b838111156200025b576000848401525b50505050565b60006200026e8262000221565b91506200027b8362000221565b9250826200028e576200028d620002c8565b5b828206905092915050565b7f4e487b7100000000000000000000000000000000000000000000000000000000600052601160045260246000fd5b7f4e487b7100000000000000000000000000000000000000000000000000000000600052601260045260246000fd5b6000601f19601f8301169050919050565b6113ac80620003186000396000f3fe608060405234801561001057600080fd5b50600436106100575760003560e01c806325d8c9741461005c578063449d46c01461007a5780639a2cdc0814610096578063a42a4663146100b4578063bd43a908146100e4575b600080fd5b610064610102565b6040516100719190610f4e565b60405180910390f35b610094600480360381019061008f9190610b89565b610149565b005b61009e6105e9565b6040516100ab9190610f4e565b60405180910390f35b6100ce60048036038101906100c99190610b60565b610634565b6040516100db9190610f4e565b60405180910390f35b6100ec61064c565b6040516100f99190610e05565b60405180910390f35b6000600160003373ffffffffffffffffffffffffffffffffffffffff1673ffffffffffffffffffffffffffffffffffffffff16815260200190815260200160002054905090565b42601e600260003373ffffffffffffffffffffffffffffffffffffffff1673ffffffffffffffffffffffffffffffffffffffff168152602001908152602001600020546101969190611060565b106101d6576040517f08c379a00000000000000000000000000000000000000000000000000000000081526004016101cd90610f2e565b60405180910390fd5b42600260003373ffffffffffffffffffffffffffffffffffffffff1673ffffffffffffffffffffffffffffffffffffffff16815260200190815260200160002081905550600160008082825461022c9190611060565b925050819055506102736040518060400160405280601681526020017f257320776176656420772f206d657373616765202573000000000000000000008152503383610840565b60018060003373ffffffffffffffffffffffffffffffffffffffff1673ffffffffffffffffffffffffffffffffffffffff16815260200190815260200160002060008282546102c29190611060565b92505081905550600460405180608001604052803373ffffffffffffffffffffffffffffffffffffffff168152602001838152602001428152602001600160003373ffffffffffffffffffffffffffffffffffffffff1673ffffffffffffffffffffffffffffffffffffffff16815260200190815260200160002054815250908060018154018082558091505060019003906000526020600020906004020160009091909190915060008201518160000160006101000a81548173ffffffffffffffffffffffffffffffffffffffff021916908373ffffffffffffffffffffffffffffffffffffffff16021790555060208201518160010190805190602001906103cd929190610a40565b5060408201518160020155606082015181600301555050606460035442446103f59190611060565b6103ff9190611060565b6104099190611197565b6003819055506104506040518060400160405280601681526020017f52616e646f6d20232067656e6572617465643a202564000000000000000000008152506003546108df565b603260035411610596576104996040518060400160405280600781526020017f257320776f6e21000000000000000000000000000000000000000000000000008152503361097b565b6000655af3107a40009050478111156104e7576040517f08c379a00000000000000000000000000000000000000000000000000000000081526004016104de90610eee565b60405180910390fd5b60003373ffffffffffffffffffffffffffffffffffffffff168260405161050d90610df0565b60006040518083038185875af1925050503d806000811461054a576040519150601f19603f3d011682016040523d82523d6000602084013e61054f565b606091505b5050905080610593576040517f08c379a000000000000000000000000000000000000000000000000000000000815260040161058a90610f0e565b60405180910390fd5b50505b3373ffffffffffffffffffffffffffffffffffffffff167f5f7e16dc676677766a70e9c5628aa6c54ddb8b6e5188e2ae1e1f17f1ffbea71642836040516105de929190610f69565b60405180910390a250565b600061062c6040518060400160405280601781526020017f5765206861766520256420746f74616c207761766573210000000000000000008152506000546108df565b600054905090565b60026020528060005260406000206000915090505481565b60606004805480602002602001604051908101604052809291908181526020016000905b8282101561079e57838290600052602060002090600402016040518060800160405290816000820160009054906101000a900473ffffffffffffffffffffffffffffffffffffffff1673ffffffffffffffffffffffffffffffffffffffff1673ffffffffffffffffffffffffffffffffffffffff1681526020016001820180546106f990611134565b80601f016020809104026020016040519081016040528092919081815260200182805461072590611134565b80156107725780601f1061074757610100808354040283529160200191610772565b820191906000526020600020905b81548152906001019060200180831161075557829003601f168201915b505050505081526020016002820154815260200160038201548152505081526020019060010190610670565b50505050905090565b61083d816040516024016107bb9190610e27565b6040516020818303038152906040527f41304fac000000000000000000000000000000000000000000000000000000007bffffffffffffffffffffffffffffffffffffffffffffffffffffffff19166020820180517bffffffffffffffffffffffffffffffffffffffffffffffffffffffff8381831617835250505050610a17565b50565b6108da83838360405160240161085893929190610e79565b6040516020818303038152906040527fe0e9ad4f000000000000000000000000000000000000000000000000000000007bffffffffffffffffffffffffffffffffffffffffffffffffffffffff19166020820180517bffffffffffffffffffffffffffffffffffffffffffffffffffffffff8381831617835250505050610a17565b505050565b61097782826040516024016108f5929190610ebe565b6040516020818303038152906040527f9710a9d0000000000000000000000000000000000000000000000000000000007bffffffffffffffffffffffffffffffffffffffffffffffffffffffff19166020820180517bffffffffffffffffffffffffffffffffffffffffffffffffffffffff8381831617835250505050610a17565b5050565b610a138282604051602401610991929190610e49565b6040516020818303038152906040527f319af333000000000000000000000000000000000000000000000000000000007bffffffffffffffffffffffffffffffffffffffffffffffffffffffff19166020820180517bffffffffffffffffffffffffffffffffffffffffffffffffffffffff8381831617835250505050610a17565b5050565b60008151905060006a636f6e736f6c652e6c6f679050602083016000808483855afa5050505050565b828054610a4c90611134565b90600052602060002090601f016020900481019282610a6e5760008555610ab5565b82601f10610a8757805160ff1916838001178555610ab5565b82800160010185558215610ab5579182015b82811115610ab4578251825591602001919060010190610a99565b5b509050610ac29190610ac6565b5090565b5b80821115610adf576000816000905550600101610ac7565b5090565b6000610af6610af184610fbe565b610f99565b905082815260208101848484011115610b0e57600080fd5b610b198482856110f2565b509392505050565b600081359050610b308161135f565b92915050565b600082601f830112610b4757600080fd5b8135610b57848260208601610ae3565b91505092915050565b600060208284031215610b7257600080fd5b6000610b8084828501610b21565b91505092915050565b600060208284031215610b9b57600080fd5b600082013567ffffffffffffffff811115610bb557600080fd5b610bc184828501610b36565b91505092915050565b6000610bd68383610d6f565b905092915050565b610be7816110b6565b82525050565b610bf6816110b6565b82525050565b6000610c0782610fff565b610c118185611022565b935083602082028501610c2385610fef565b8060005b85811015610c5f5784840389528151610c408582610bca565b9450610c4b83611015565b925060208a01995050600181019050610c27565b50829750879550505050505092915050565b6000610c7c8261100a565b610c86818561103e565b9350610c96818560208601611101565b610c9f81611284565b840191505092915050565b6000610cb58261100a565b610cbf818561104f565b9350610ccf818560208601611101565b610cd881611284565b840191505092915050565b6000610cf060348361104f565b9150610cfb82611295565b604082019050919050565b6000610d1360278361104f565b9150610d1e826112e4565b604082019050919050565b6000610d36600a8361104f565b9150610d4182611333565b602082019050919050565b6000610d59600083611033565b9150610d648261135c565b600082019050919050565b6000608083016000830151610d876000860182610bde565b5060208301518482036020860152610d9f8282610c71565b9150506040830151610db46040860182610dd2565b506060830151610dc76060860182610dd2565b508091505092915050565b610ddb816110e8565b82525050565b610dea816110e8565b82525050565b6000610dfb82610d4c565b9150819050919050565b60006020820190508181036000830152610e1f8184610bfc565b905092915050565b60006020820190508181036000830152610e418184610caa565b905092915050565b60006040820190508181036000830152610e638185610caa565b9050610e726020830184610bed565b9392505050565b60006060820190508181036000830152610e938186610caa565b9050610ea26020830185610bed565b8181036040830152610eb48184610caa565b9050949350505050565b60006040820190508181036000830152610ed88185610caa565b9050610ee76020830184610de1565b9392505050565b60006020820190508181036000830152610f0781610ce3565b9050919050565b60006020820190508181036000830152610f2781610d06565b9050919050565b60006020820190508181036000830152610f4781610d29565b9050919050565b6000602082019050610f636000830184610de1565b92915050565b6000604082019050610f7e6000830185610de1565b8181036020830152610f908184610caa565b90509392505050565b6000610fa3610fb4565b9050610faf8282611166565b919050565b6000604051905090565b600067ffffffffffffffff821115610fd957610fd8611255565b5b610fe282611284565b9050602081019050919050565b6000819050602082019050919050565b600081519050919050565b600081519050919050565b6000602082019050919050565b600082825260208201905092915050565b600081905092915050565b600082825260208201905092915050565b600082825260208201905092915050565b600061106b826110e8565b9150611076836110e8565b9250827fffffffffffffffffffffffffffffffffffffffffffffffffffffffffffffffff038211156110ab576110aa6111c8565b5b828201905092915050565b60006110c1826110c8565b9050919050565b600073ffffffffffffffffffffffffffffffffffffffff82169050919050565b6000819050919050565b82818337600083830152505050565b60005b8381101561111f578082015181840152602081019050611104565b8381111561112e576000848401525b50505050565b6000600282049050600182168061114c57607f821691505b602082108114156111605761115f611226565b5b50919050565b61116f82611284565b810181811067ffffffffffffffff8211171561118e5761118d611255565b5b80604052505050565b60006111a2826110e8565b91506111ad836110e8565b9250826111bd576111bc6111f7565b5b828206905092915050565b7f4e487b7100000000000000000000000000000000000000000000000000000000600052601160045260246000fd5b7f4e487b7100000000000000000000000000000000000000000000000000000000600052601260045260246000fd5b7f4e487b7100000000000000000000000000000000000000000000000000000000600052602260045260246000fd5b7f4e487b7100000000000000000000000000000000000000000000000000000000600052604160045260246000fd5b6000601f19601f8301169050919050565b7f547279696e6720746f207769746864726177206d6f7265206d6f6e657920746860008201527f616e2074686520636f6e7472616374206861732e000000000000000000000000602082015250565b7f4661696c656420746f207769746864726177206d6f6e65792066726f6d20636f60008201527f6e74726163742e00000000000000000000000000000000000000000000000000602082015250565b7f5761697420333073656300000000000000000000000000000000000000000000600082015250565b50565b611368816110b6565b811461137357600080fd5b5056fea264697066735822122072c24dcd86e1c272998871f77fcfe67dfae0c317dd314f27a5090f58e4c6c03e64736f6c63430008040033",
  "linkReferences": {},
  "deployedLinkReferences": {}
}